:1000000009C021C020C01FC01EC01DC01CC01BC015
:100010001AC019C011241FBECFE9CDBF10E0A0E661
:10002000B0E0E4E5F3E003C0C89531960D92A43941
:10003000B107D1F710E0A4E9B0E001C01D92A539E5
:10004000B107E1F744C0DCCFB92FA82F8E3091055E
:1000500008F03CC0F92FE82FE05AFF4F808187BBA2
:10006000A259BF4F8C9188BBB89B06C0C09B02C0F1
:1000700083E807C083EC05C0C19B02C083E201C0D6
:1000800083E38FBD81E083BFB89B02C016BE01C071
:1000900019BCECE7F0E08081B89B02C086BF01C0CC
:1000A00089BD80E29CE10197F1F7319680E0E0396B
:1000B000F80789F7B89B02C016BE01C019BC1FBC67
:1000C00013BE18BA80E19FEE0197F1F70895CFE9CA
:1000D000D0E0DEBFCDBF1EBAE09A0DB311270F5F8F
:1000E0001F4F912F802F88D01CBA1EBA0DBBE29AE9
:1000F000E19A7ED0082F192F7BD0E82EF92E78D0E8
:100100006EE170E084D0C82ED92E72D06EE070E01F
:100110007ED0D92FC82F98DF912F802F62E070E01A
:1001200076D0892B19F08C2F9D2F8EDF9F2D8E2D51
:1001300062E070E06CD0892B19F08C2F9D2F84DF4A
:1001400020E030E006C080E19FEE0197F1F72F5FDD
:100150003F4F2C153D05BCF3CCCFA0E0B0E0E2EB67
:10016000F0E0C8C0D92FC82FE880F9800A811B8130
:10017000912F802F7F2D6E2D2DE133EF41E050E048
:100180008AD027EA31E440E050E06AD0A62EB72EAC
:10019000C82ED92E912F802F7F2D6E2D2DE133EF7C
:1001A00041E050E078D0952F842F732F622F24E107
:1001B0003BE040E050E054D0A61AB70AC80AD90A7A
:1001C000BD2DAC2D9B2D8A2D1A141B041C041D045F
:1001D00024F081509040A040B04888839983AA833E
:1001E000BB839F77EAE0CDB7DEB7A0C0B6DF089546
:1001F00080E990E0B2DF0895AA27BB2780939000A2
:1002000090939100A0939200B0939300089597FB70
:10021000092E07260AD077FD04D00CD006D0002086
:100220001AF4709561957F4F0895F6F79095819532
:100230009F4F0895AA1BBB1B51E107C0AA1FBB1FFC
:10024000A617B70710F0A61BB70B881F991F5A9562
:10025000A9F780959095682F792F8A2F9B2F089565
:10026000FF27EE27BB27AA2760FF04C0A20FB31FFA
:10027000E41FF51F220F331F441F551F96958795C6
:100280007795679589F70097760771F79F2F8E2FDF
:100290007B2F6A2F0895A1E21A2EAA1BBB1BEA2FFF
:1002A000FB2F0DC0AA1FBB1FEE1FFF1FA217B30716
:1002B000E407F50720F0A21BB30BE40BF50B661F58
:1002C000771F881F991F1A9469F76095709580951C
:1002D0009095262F372F482F592F6A2F7B2F8E2F3F
:1002E0009F2F08952F923F924F925F926F927F922D
:1002F0008F929F92AF92BF92CF92DF92EF92FF9236
:100300000F931F93CF93DF93CDB7DEB7CA1BDB0BE1
:100310000FB6F894DEBF0FBECDBF09942A88398886
:1003200048885F846E847D848C849B84AA84B9848D
:10033000C884DF80EE80FD800C811B81AA81B98199
:10034000CE0FD11D0FB6F894DEBF0FBECDBFCA2FA2
:04035000DB2F089502
:10035400030305050909111106060A0A121201020E
:1003640001040108011002040208021000101923FC
:100374003741556265655D54463C32282319100B9C
:040384000100000074
:00000001FF
